S01200006570617272656D6F74652E73726563DE
S1130000F9C013C112C111C110C10FC10EC10DC17C
S11300100CC10BC10AC109C108C107C106C105C190
S113002004C103C102C1544C4320455041520056FF
S113003065722E20322E30004675727274656B2202
S11300400030372F31302F313900FA08FA08540BB9
S1130050430BDD08DE081609450964093709070959
S1130060610B020BC10A5C092B09B40ADF08720A8E
S1130070300A54092009220AE008FE09DA09840931
S1130080AC0970096809F208EA08E108E208E40822
S1130090E30843454E5445523A005350414E3A000A
S11300A0434F44453A20005A4F4E453A005452417A
S11300B04E534D49540052454C313A0052454C324E
S11300C03A004F4E004F4646004128303029004246
S11300D02830312900432831302900545028313147
S11300E0290052454C415920310052454C41592078
S11300F03200444F4E452021200000407A10F35A2C
S113010000A0724E18090010A5D4E80000E8764853
S1130110170000E40B54020000CA9A3B000000E1FF
S1130120F505000080969800000040420F00000092
S1130130A08601000000102700000000E803000072
S113014000006400000000000A000000000001003C
S1130150000000002C76D888DC674F0823DFC1DF5D
S1130160AE59E1B1B796E5E3E453C63AE651997660
S113017096E8E6C28426EB898C9B62ED407C6FFC9A
S1130180EFBC9C9F40F2BAA56FA5F490055A2AF7DC
S11301905C936B6CF9676DC11BFCE0E40D47FEF5E5
S11301A020E6B500D0ED902E03009435770500804D
S11301B0841E080000204E0A000000C80C333333AC
S11301C0330F986E12831141EF8D2114893BE6554C
S11301D016CFFEE6DB18D1844B381BF77C1D901D2F
S11301E0A4BBE424203284725E228100C9F124EC91
S11301F0A1E53D2711241FBECFE5D4E0DEBFCDBF6E
S113020010E0A0E6B0E0ECEBFEE102C005900D9238
S1130210AE38B107D9F710E0AEE8B0E001C01D92E6
S1130220A93AB107E1F7EBD547CEEACEEF92FF92B8
S11302300F931F937B018C0120E030E040E05FE4EA
S113024080D388237CF0C801B70120E030E040E08F
S11302505FE45ED1CCD39B01AC01205030404040E0
S1130260504805C0C801B701C2D39B01AC01B90114
S1130270CA011F910F91FF90EF900895A0E0B0E0A4
S1130280E3E4F1E05DCBDC012B01FA019C919230B7
S113029008F439C1EB018881823008F433C1943009
S11302A069F4843009F02FC111969C9111978981CA
S11302B0981709F428C1A0E6B0E025C1843009F4F8
S11302C021C18230A9F4923009F01DC19A01AD0117
S11302D088E0EA010990AE01E90109929E0181508A
S11302E0C1F7E201898111969C918923818308C118
S11302F0923009F407C112962D903C901397EB01AC
S11303008A819B811496AD90BD90CD90DC90179717
S1130310EC80FD800E811F819101281B390BB901EE
S113032037FF04C066277727621B730B60327105A1
S11303300CF061C0121613066CF537014801062E45
S113034004C096948794779467940A94D2F721E032
S113035030E040E050E004C0220F331F441F551F1B
S11303606A95D2F721503040404050402E213F2121
S113037040235123211531054105510521F021E088
S113038030E040E050E079018A01E628F7280829A6
S113039019293CC0232BD1F1260E371E3501460105
S11303A0062E04C096948794779467940A94D2F79F
S11303B021E030E040E050E004C0220F331F441F2E
S11303C0551F6A95D2F721503040404050402A21B1
S11303D03B214C215D21211531054105510521F0B9
S11303E021E030E040E050E059016A01A628B72836
S11303F0C828D9280BC0821593052CF01C01AA2407
S1130400BB24650103C0EE24FF24870111969C914F
S1130410D20111968C91981709F445C0992339F0AB
S1130420A80197012A193B094C095D0906C0A601D8
S113043095012E193F09400B510B57FD08C011823D
S11304403382228224833583468357831DC081E00F
S113045081833382228288279927DC01821B930BB4
S1130460A40BB50B84839583A683B7830DC0220F99
S1130470331F441F551F248335834683578382814A
S113048093810197938382832481358146815781A7
S1130490DA01C9010197A109B1098F5F9F4FAF4FDD
S11304A0BF4328F30BC0918333822282EA0CFB1CE6
S11304B00C1D1D1DE482F5820683178383E080836F
S11304C0248135814681578157FF1AC0C901AA2763
S11304D097FDA095BA2F81709070A070B07056955A
S11304E0479537952795822B932BA42BB52B848383
S11304F09583A683B78382819381019693838283B4
S1130500DF0101C0D201CD01CDB7DEB7E2E134CACB
S1130510A0E2B0E0EDE8F2E01FCA69837A838B833E
S11305209C832D833E834F835887E9E0EE2EF12C84
S1130530EC0EFD1ECE010196B7017FD38E010F5E36
S11305401F4FCE010596B80178D38A8991E0892797
S11305508A8BC701B801AE01475E5F4F8FDE98D228
S1130560A096E6E015CAA0E2B0E0E8EBF2E0F4C938
S113057069837A838B839C832D833E834F8358873F
S1130580F9E0EF2EF12CEC0EFD1ECE010196B70121
S113059054D38E010F5E1F4FCE010596B8014DD383
S11305A0C701B801AE01475E5F4F68DE71D2A09605
S11305B0E6E0EEC9A0E2B0E0EFEDF2E0C1C9698384
S11305C07A838B839C832D833E834F835887CE010C
S11305D00196BE01675F7F4F30D3CE010596BE0101
S11305E06F5E7F4F2AD39985923088F08989823053
S11305F0C8F0943019F4823051F404C0843029F4E2
S1130600923081F480E690E0C6C0923049F420E054
S11306109A858A89981321E02A87CE010996BBC05E
S1130620823049F420E09A858A89981321E02A8B44
S1130630CE014196B0C02D843E844F8458886D8885
S11306407E888F88988CEE24FF248701AA24BB24FB
S1130650650140E050E060E070E0E0E0F0E0C101FE
S113066081709070892BE9F0E60CF71C081D191DA8
S11306709A01AB012A0D3B1D4C1D5D1D80E090E0ED
S1130680A0E0B0E0E614F7040805190520F481E0C1
S113069090E0A0E0B0E0BA01A901480F591F6A1F19
S11306A07B1FAA0CBB1CCC1CDD1C97FE08C081E080
S11306B090E0A0E0B0E0A82AB92ACA2ADB2A319641
S11306C0E032F10549F0660C771C881C991C56949D
S11306D0479437942794C3CFFA85EA892B893C89B8
S11306E08B859C85280F391F2E5F3F4F17C0CA0189
S11306F081709070892B61F016950795F794E794B3
S113070080E090E0A0E0B0E8E82AF92A0A2B1B2B4D
S113071076956795579547952F5F3F4F77FDE7CFC0
S11307200CC0440F551F661F771F17FD4160EE0C68
S1130730FF1C001F111F21503040403090E059072A
S113074090E0690790E4790760F32B8F3C8FDB011D
S1130750CA018F779070A070B07080349105A105A4
S1130760B10561F447FD0AC0E114F1040105110566
S113077029F0405C5F4F6F4F7F4F40781A8EFE1711
S113078011F081E08A8F4D8F5E8F6F8F78A383E0A5
S1130790898FCE0149967CD1A096E2E1EDC8A8E10B
S11307A0B0E0E4EDF3E0D4C869837A838B839C835F
S11307B02D833E834F835887B9E0EB2EF12CEC0E4A
S11307C0FD1ECE010196B70138D28E010F5E1F4F78
S11307D0CE010596B80131D22985223008F47EC0B5
S11307E03989323010F4B8017CC08A859A89892706
S11307F08A87243011F0223031F4231709F06EC0B7
S113080060E670E06EC0343039F41D861E861F86A3
S1130810188A1C861B8604C0323021F484E0898740
S1130820B7015FC02B853C858B899C89281B390BBC
S11308303C872B87ED84FE840F851889AD88BE889C
S1130840CF88D88CEA14FB040C051D0540F4EE0C8B
S1130850FF1C001F111F215030403C872B8720E0D4
S113086030E040E050E080E090E0A0E0B0E460E000
S113087070E0EA14FB040C051D0540F0282B392B0D
S11308804A2B5B2BEA18FB080C091D09B695A795A2
S113089097958795EE0CFF1C001F111F6F5F7F4F0C
S11308A06F31710531F7DA01C9018F779070A0704B
S11308B0B07080349105A105B10561F427FD0AC02B
S11308C0E114F1040105110529F0205C3F4F4F4F5D
S11308D05F4F20782D873E874F87588BBE01675F17
S11308E07F4FCB01D5D06896EAE04EC8A8E1B0E0CE
S11308F0EBE7F4E031C869837A838B839C832D838F
S11309003E834F83588789E0E82EF12CEC0EFD1EC0
S1130910CE010196B70191D18E010F5E1F4FCE011A
S11309200596B8018AD18985823038F08989823068
S113093020F0C701B801F9D101C08FEF6896E6E055
S113094027C8A8E1B0E0E6EAF4E006C869837A8340
S11309508B839C832D833E834F83588789E0E82EC5
S1130960F12CEC0EFD1ECE010196B70166D18E016D
S11309700F5E1F4FCE010596B8015FD18985823085
S113098038F08989823020F0C701B801CED101C086
S11309908FEF6896E6E0FCC7A8E1B0E0E1EDF4E093
S11309A0DBC769837A838B839C832D833E834F8348
S11309B0588789E0E82EF12CEC0EFD1ECE0101963D
S11309C0B7013BD18E010F5E1F4FCE010596B801D2
S11309D034D18985823038F08989823020F0C7018A
S11309E0B801A3D101C081E06896E6E0D1C7ACE0CC
S11309F0B0E0ECEFF4E0B4C769837A838B839C8323
S1130A00CE010196BE016B5F7F4F17D18D8182307D
S1130A1061F1823050F1843021F48E81882351F1C8
S1130A202EC02F81388537FD20C06E812F313105CE
S1130A301CF06623F9F023C08EE190E0821B930B37
S1130A4029853A854B855C8504C05695479537952D
S1130A5027958A95D2F76623B1F050954095309545
S1130A6021953F4F4F4F5F4F0EC020E030E040E0F4
S1130A7050E009C02FEF3FEF4FEF5FE704C020E0E5
S1130A8030E040E050E8B901CA012C96E2E084C7A6
S1130A90DF92EF92FF920F931F93FC01E480F580A5
S1130AA006811781D1808081823048F480E090E013
S1130AB0A0E1B0E0E82AF92A0A2B1B2BA5C0843058
S1130AC009F49FC0823021F4EE24FF24870105C07D
S1130AD0E114F1040105110519F4E0E0F0E096C019
S1130AE0628173819FEF623879070CF05BC022E862
S1130AF03FEF261B370B2A3131052CF020E030E084
S1130B0040E050E02AC0B801A701022E04C0769547
S1130B106795579547950A94D2F781E090E0A0E055
S1130B20B0E004C0880F991FAA1FBB1F2A95D2F7F3
S1130B300197A109B1098E219F21A023B123009718
S1130B40A105B10521F081E090E0A0E0B0E09A01B8
S1130B50AB01282B392B4A2B5B2BDA01C9018F7788
S1130B609070A070B07080349105A105B10539F47E
S1130B7027FF09C0205C3F4F4F4F5F4F04C0215CEB
S1130B803F4F4F4F5F4FE0E0F0E02030A0E03A07E6
S1130B90A0E04A07A0E45A0710F0E1E0F0E0790190
S1130BA08A0127C06038710564F5FB01E158FF4FE5
S1130BB0D801C7018F779070A070B0708034910510
S1130BC0A105B10539F4E7FE0DC080E490E0A0E092
S1130BD0B0E004C08FE390E0A0E0B0E0E80EF91EBE
S1130BE00A1F1B1F17FF05C016950795F794E79476
S1130BF0319687E016950795F794E7948A95D1F78F
S1130C0005C0EE24FF248701EFEFF0E06E2F679517
S1130C1066276795902F9F77D794DD24D7948E2FDE
S1130C208695492F462B582F5D29B701CA011F917C
S1130C300F91FF90EF90DF900895FC01DB0140815C
S1130C4051812281622F6F7770E0221F2227221F99
S1130C509381892F880F822B282F30E0991F9927A1
S1130C60991F11969C93119721153105A9F54115EA
S1130C7051056105710511F482E037C082E89FEFE8
S1130C8013969C938E9312979A01AB0167E0220FFF
S1130C90331F441F551F6A95D1F783E08C930DC011
S1130CA0220F331F441F551F12968D919C91139749
S1130CB0019713969C938E931297203080E0380707
S1130CC080E0480780E4580758F314962D933D9329
S1130CD04D935C93179708952F3F310579F441158F
S1130CE051056105710519F484E08C93089564FF3E
S1130CF003C081E08C9312C01C9210C02F57304067
S1130D0013963C932E93129783E08C9387E0440FC1
S1130D10551F661F771F8A95D1F7706414964D93FB
S1130D205D936D937C93179708951F93DC01FB01EA
S1130D309C91923008F447C08081823008F443C00B
S1130D40943051F411961C91843099F58181682F67
S1130D5070E0611B71093FC0843021F0923031F49E
S1130D608230B9F18181882389F12DC011961C91BB
S1130D7011978230F1F081811817D9F412962D91D0
S1130D803C911397828193818217930794F02817DB
S1130D903907BCF014968D919D910D90BC91A02DB6
S1130DA02481358146815781281739074A075B0713
S1130DB018F4112341F00AC082179307A407B5075A
S1130DC040F4112319F061E070E005C06FEF7FEF8C
S1130DD002C060E070E0CB011F910895809168002B
S1130DE090E0880F991F86589F4FFC0125913491FC
S1130DF03093A3002093A200F90109950895EF927E
S1130E00FF920F931F9388E181BD11BC8FE087BBD4
S1130E1080EF81BB83E084BB8FE282BB88EC90E0EF
S1130E20FC013197F1F7A89AFC013197F1F7A898E2
S1130E300197F1F788E281D181E07FD182E07DD111
S1130E408CE07BD180E879D186E290E084D180EC9B
S1130E5074D18FE290E07FD180E197E228EC30E01A
S1130E60F9013197F1F70197D9F780E866D188E362
S1130E7090E071D180EC61D181E490E06CD180E1AB
S1130E8097E228EC30E0F9013197F1F70197D9F7AF
S1130E9088E088BB88EE93E028EC30E0F9013197D4
S1130EA0F1F70197D9F718BA88EE93E028EC30E00F
S1130EB0F9013197F1F70197D9F781E088BB20ED6B
S1130EC037E0C9010197F1F718BAC9010197F1F7A1
S1130ED082E088BBC9010197F1F718BAC9010197EB
S1130EE0F1F760E070E080E090E044E019D480E045
S1130EF090E08DD58093A80081E090E088D5809320
S1130F009500843018F083E0809395008EE990E09A
S1130F1067E070E044E050E06AD580919E009091D3
S1130F209F00A091A000B091A100BF778150904094
S1130F30A048BF47D0F4E0909E00F0909F0000913D
S1130F40A0001091A100C801B7012FE632E143E8E7
S1130F505AE322DD87FD09C0C801B70120E030E073
S1130F6040E85FE3C3DC181664F486EA9BE9A4E472
S1130F70BBE380939E0090939F00A093A000B09346
S1130F80A10084EA90E063E070E044E050E02FD5F3
S1130F908091A4009091A500A091A600B091A70013
S1130FA0BF7781509040A048BF47D0F4E090A400A0
S1130FB0F090A5000091A6001091A700C801B70108
S1130FC020E030E040EA51E4E7DC87FD09C0C801D5
S1130FD0B70120E030E040E252E488DC181664F403
S1130FE080E090E0A8EFB1E48093A4009093A50082
S1130FF0A093A600B093A700F1DE08EC10E0E5E0B2
S1131000EE2EFF24F39480B38F708F30E1F384EFDE
S113101091E0F8013197F1F70197D9F7809919C058
S1131020809BFECF80918E0090916800882351F0C0
S1131030892F90E0880F991F8E599F4FFC012591AD
S1131040349160C0992319F4E09268001EC0915055
S11310501AC083991CC0839BFECF80918E0090910F
S11310606800882351F0892F90E0880F991F8259D6
S11310709F4FFC012591349145C0953019F410928D
S1131080680003C09F5F90936800A8DEBCCF81997D
S113109025C0819BFECF80918E00882359F08091DA
S11310A0680090E0880F991F865B9F4FFC01259193
S11310B0349128C082E090E060916800B9D4F09245
S11310C08E00109292008091680090E0880F991F22
S11310D08A5A9F4FFC012591349114C0829993CF71
S11310E0829BFECF10928E0010928F008CE025D050
S11310F08091680090E0880F991F8A579F4FFC01E8
S1131100259134913093A3002093A200F90109950D
S11311107ACFE0EDF7E03197F1F7A89A28EC30E0C8
S1131120F9013197F1F78F6082BBC9010197F1F79B
S1131130A898C9010197F1F708951F93182F807F8C
S1131140E8DF812F8295807FE4DF80ED97E00197CF
S1131150F1F71F9108951F93CF93DF93EC01A99AA0
S113116010E002C0EADF1F5FFE01E10FF11D849170
S11311708823C1F7A998DF91CF911F9108951F93F8
S1131180CF93DF93EC01A99A10E002C0D6DF1F5F72
S1131190FE01E10FF11D80818823C1F7A998DF9139
S11311A0CF911F910895A99AC8DFA99808958A300C
S11311B010F0895C0895805D089508950895089558
S11311C0089508950895089581E090E06091950050
S11311D02FD408958EE990E067E070E044E050E099
S11311E01ED4089584EA90E063E070E044E050E0A7
S11311F016D4089580918F0091E0892780938F0001
S1131200882311F08DE001C08EE097DF089580EC13
S113121094DF8DE092DF089590919200943010F065
S113122085EC01C086EC891B88DF0895F5DF8EE02C
S113123084DF08959091910087EC891B7EDF0895E7
S113124080919100882311F487E001C0815080933C
S11312509100F0DF089580919100873019F4109285
S1131260910003C08F5F80939100E4DF0895E2DF73
S11312708DE063DF089590919200933010F083EC39
S113128001C084EC891B59DF089510929200F3DFAA
S11312908EE053DF0895809190008295880F880F27
S11312A0807C8B574ADF08958091900091E08927D4
S11312B080939000F0DF08958091900091E0892759
S11312C080939000E8DF0895E6DF8DE036DF08952F
S11312D081E033DF80E831DF8DEA90E03CDF089580
S11312E081E02BDF80E829DF87EA90E034DF80ECBF
S11312F024DFE0919500F0E0EE0FFF1FE359FF4F6C
S11313008081918128DF08950F931F9381E015DF79
S113131080E813DF86EB90E01EDFE0919300F0E0BD
S1131320EE0FFF1F09E610E0E00FF11F80819181AD
S113133012DF80EC02DF8CEB90E00DDF80919400F3
S113134090E0880F991F080F191FF801808191817F
S113135002DF1F910F910895CF93DF9381E0EDDEBB
S113136080E8EBDE80EA90E0F6DE8091A8008295CA
S11313708F701DDF18DF8091A8008F7018DF13DFD6
S113138080ECDBDEC0E0D0E08091A80090E00C2E81
S113139002C0880F991F0A94E2F78823881F8827C0
S11313A0881F805D00DF2196C830D10569F7DF9181
S11313B0CF910895EF92FF920F931F9381E0BDDECA
S11313C080E8BBDE8AE990E0C6DE60919E00709101
S11313D09F008091A0009091A10046E9E42E40E096
S11313E0F42E43E023E08701E2D280ECA6DEC701BD
S11313F0C6DE1F910F91FF90EF900895EF92FF9238
S11314000F931F9381E099DE80E897DE82E990E0F4
S1131410A2DE6091A4007091A5008091A600909135
S1131420A70056E9E52E50E0F52E43E024E08701BD
S1131430BED280EC82DEC701A2DE1F910F91FF9025
S1131440EF90089580919500833019F410929500DF
S113145003C08F5F80939500C1DC80EC6EDE08953D
S113146080918F00E0919200882389F1F0E0EE0FE3
S1131470FF1FEE0FFF1FE758FF4F60919E00709112
S11314809F008091A0009091A10020813181428130
S1131490538169D860939E0070939F008093A0004D
S11314A09093A10020E030E040E85FE31FDA1816D3
S11314B064F480E090E0A0E8BFE380939E00909302
S11314C09F00A093A000B093A10088DC09C0EE2384
S11314D021F483E08093920003C0E150E0939200F2
S11314E0CADE089580918F00E0919200882389F1EB
S11314F0F0E0EE0FFF1FEE0FFF1FEB58FF4F609160
S1131500A4007091A5008091A6009091A70020816D
S113151031814281538127D86093A4007093A50040
S11315208093A6009093A70020E030E040E252E4CC
S1131530DDD9181664F480E090E0A0E2B2E4809370
S1131540A4009093A500A093A600B093A70046DC46
S113155009C0EE2321F485E08093920003C0E1509A
S1131560E093920059DE089580919500882311F448
S113157083E001C081508093950030DC80ECDDDD98
S1131580089580918F00E0919200882389F1F0E022
S1131590EE0FFF1FEE0FFF1FE758FF4F60919E00F5
S11315A070919F008091A0009091A10020813181D1
S11315B042815381ADD760939E0070939F008093C6
S11315C0A0009093A1002FE632E143E85AE3E4D966
S11315D0882364F48FE692E1A3E8BAE380939E0043
S11315E090939F00A093A000B093A100F7DB08C0E4
S11315F0E33019F41092920003C0EF5FE09392007D
S11316003ADE089580918F00E0919200882389F159
S1131610F0E0EE0FFF1FEE0FFF1FEB58FF4F60913E
S1131620A4007091A5008091A6009091A70020814C
S11316303181428153816CD76093A4007093A500DB
S11316408093A6009093A70020E030E040EA51E4A4
S1131650A3D9882364F480E090E0A0EAB1E4809305
S1131660A4009093A500A093A600B093A700B6DBB6
S113167008C0E53019F41092920003C0EF5FE093C4
S11316809200CADD089581E090E00090910002C0CC
S1131690880F991F0A94E2F72091A8002827209325
S11316A0A8009CDBC7DD089580919000E3E9F0E099
S11316B0E80FF11D808191E0892780838FDBEBDDCA
S11316C00895EF920F9380EC38DD82EE90E043DDD5
S11316D08091A8006091950041E02091930000E082
S11316E09AE1E92EB7D080EC28DD8AEE90E033DD74
S11316F08091A8006091950040E020919400AAD0C8
S113170080EC1BDD82EF90E026DD60E070E080E09D
S113171090E044E005D010928E000F91EF90089570
S1131720EF92FF920F931F937B018C0120E030E036
S11317305AE1D801C701022E04C0B695A795979522
S113174087950A94D2F781709070892B11F0C29A10
S113175001C0C298C09A852F8A95F1F7C098852F49
S11317608A95F1F72F5F3F4F2032310511F720E0C2
S113177030E050E06AE1CA01022E02C095958795D7
S11317800A94E2F780FF02C0C29A01C0C298C09ACC
S11317909AE1862F8A95F1F7C098862F8A95F1F7FA
S11317A02F5F3F4F2830310531F7C19A892F8A9531
S11317B0F1F7C198892F8A95F1F71F910F91FF9046
S11317C0EF90089560919E0070919F008091A00019
S11317D09091A10020E030E040E05FEBEBD6209157
S11317E0A4003091A5004091A6005091A700BBD65B
S11317F020E030E040E85FE4DDD620E030E04AEF6E
S113180052E4CDD713D540E08BDF089560919E005C
S113181070919F008091A0009091A10020E030E0A1
S113182040E05FE3C7D62091A4003091A500409129
S1131830A6005091A70097D620E030E040E85FE48E
S1131840B9D620E030E04AEF52E4A9D7EFD440E023
S113185067DF0895AF92BF92CF92DF92EF92FF922B
S11318600F931F93CF93DF93382FCE2C88E088BB40
S113187088EE93E0A8ECB0E0FD013197F1F7019711
S1131880D9F718BA88EE93E0A8ECB0E0FD013197DF
S1131890F1F70197D9F7962F80E0032F10E0082B7A
S11318A0192B942F990F990F80E0082B192B922F45
S11318B0990F990F990F80E0082B192BDD2490E1E3
S11318C0E92E9EE0F92E88ECA82EB12C2CC07ADFEC
S11318D0C7010197F1F7C0E0D0E098DFC701019795
S11318E0F1F7C8010C2E02C0969587950A94E2F789
S11318F080FF05C0C7010197F1F764DF04C062DF10
S1131900C7010197F1F7C7010197F1F72196CC3090
S1131910D10519F77BDF86E792E0F5013197F1F7FE
S11319200197D9F7D394DC1490F2DF91CF911F91F2
S11319300F91FF90EF90DF90CF90BF90AF900895FC
S11319402F923F924F925F926F927F928F929F92CB
S1131950AF92BF92CF92DF92EF92FF920F931F93B9
S1131960CF93DF93CDB7DEB7CA1BDB0B0FB6F8946A
S1131970DEBF0FBECDBF09942A88398848885F84AA
S11319806E847D848C849B84AA84B984C884DF801B
S1131990EE80FD800C811B81AA81B981CE0FD11DFF
S11319A00FB6F894DEBF0FBECDBFED010895EF92E0
S11319B0FF920F931F93F22FF02E47FD02C0E4E035
S11319C001C0E4E1242F332727FD309537FF03C0FE
S11319D0309521953F4F4F2D512F0F2FEE2E35D09F
S11319E08F2D912F1F910F91FF90EF900895DC019F
S11319F0CB01FC01E199FECF06C0FFBBEEBBE09A30
S1131A0031960DB20D9241505040B8F70895E199C6
S1131A10FECF9FBB8EBBE09A99278DB30895DC015E
S1131A20CB0102C02D9105D041505040D8F7089504
S1131A30262FE199FECF9FBB8EBB2DBB0FB6F8942A
S1131A40E29AE19A0FBE01960895A9E0B0E0EAE2B5
S1131A50FDE07ACF6A01122FA02EBE2C2BE32017B3
S1131A6018F42CE3922E02C0902E9394AE014F5F93
S1131A705F4F27E0092D48D1BC018981E82EFF245E
S1131A80C70189709070019711F4ADE209C0B1FEED
S1131A9002C0ABE205C0B0FC02C0A0E001C0A0E2FD
S1131AA0E3FE3BC0AA2311F423E001C024E0211784
S1131AB010F020E002C0121B212FEB2CB4FE02C058
S1131AC0322F0AC0F601322F80E202C081933150D6
S1131AD03323E1F7C20ED11CAA2319F0F601A19316
S1131AE06F01F6013196E2FE05C09EE4D6019C9397
S1131AF081E404C09EE6D6019C9381E611968C9302
S1131B0091833296DF01832F90E202C09D9381502E
S1131B108823E1F7E30FF11D40C0E2FE42C0AA238F
S1131B2011F423E001C024E0211710F020E002C0EA
S1131B30121B212FEB2CB4FE02C0922F0AC0F60117
S1131B40922F80E202C0819391509923E1F7C20E53
S1131B50D11CAA2319F0F601A1936F01F601319665
S1131B60E2FE08C089E4D6018C938EE411968C932E
S1131B7086E407C089E6D6018C938EE611968C9391
S1131B8086E681833296DF01892F20E202C02D93FD
S1131B9081508823E1F7E90FF11D10822EEF3FEF0A
S1131BA0AFC0161617061CF041E050E003C0AB01AD
S1131BB04F5F5F4FAA2019F480E090E003C08A2DA4
S1131BC090E0019620E030E0AA2311F021E030E01B
S1131BD0240F351F280F391F812F90E0281739074C
S1131BE014F020E002C0121B212F4B2D50E0CA013B
S1131BF080719070B4FC0DC0B3FC0BC0F601322FA1
S1131C0040E202C0419331503323E1F7C20ED11CAC
S1131C1001C0322FAA2319F0F601A1936F01892B79
S1131C2011F0132F0AC0F601132F80E302C0819331
S1131C3011501123E1F7C30ED11C092D060FBA80F0
S1131C4090E1892E912C8E209F20E4FE04C0F1E3C4
S1131C50BF1609F40150101614F001E003C0093056
S1131C6008F008E09B0177FF02C020E030E0CB01E0
S1131C700196821B930BFE013196E80FF91F8EE249
S1131C80F82E3B01601A71088A2D90E044275527ED
S1131C90481B590B8FEF2F3F380719F4D601FD92DB
S1131CA06D01621773072CF06216730614F48081B9
S1131CB001C080E32150304031962417350724F0C9
S1131CC0D6018D936D01E6CF2617370749F4B5E3A6
S1131CD0BB1528F0BB1621F48114910409F481E3A7
S1131CE0F6018193D601812F90E202C09C9381502A
S1131CF011968823D9F7E10FF11D108220E030E01E
S1131D00C9012996EEE03CCE283008F027E03327BD
S1131D10DA01990F311D87FD916000966105710507
S1131D2039F432602E5F3D9330E32A95E1F708954C
S1131D309F3F30F080387105610509F03C5F3C5FDE
S1131D403D93913008F08068911DDF93CF931F93EA
S1131D500F93FF92EF92192F987F9695E92F9695FE
S1131D609695E90FFF27EC5AFE4F99273327EE2467
S1131D70FF24A701E70105900894079428F4360F7F
S1131D80E71EF81E491F511D660F771F881F991FF4
S1131D900694A1F70590079428F4E70EF81E491F4E
S1131DA0561FC11D770F881F991F661F0694A1F740
S1131DB00590079428F4F80E491F561FC71FD11D1C
S1131DC0880F991F661F771F0694A1F70590079443
S1131DD020F4490F561FC71FD81F990F661F771F7E
S1131DE0881F0694A9F784911095177041F0D69531
S1131DF0C79557954795F794E7941A95C1F7EAEF75
S1131E00F0E0689415901591359165919591059040
S1131E107FE27395E118F10A430B560BC90BD00905
S1131E20C0F7E10CF11E431F561FC91FD01D7EF4DD
S1131E30703311F48A95E6CFE894015030F0080F1E
S1131E400AF40027021708F4202F2395022F7A336F
S1131E5028F079E37D932A95E9F710C07D932A95BC
S1131E6089F6069497956795379517951794E11811
S1131E70F10A430B560BC90BD00998F023957E91B8
S1131E8073957A3308F070E37C932013B8F77E914E
S1131E9070617D9330F0839571E37D9370E32A95AF
S1131EA0E1F71124EF90FF900F911F91CF91DF91F3
S10F1EB0992787FD90950895F894FFCFC2
S1131EBC000000000000000003C500C200C900CFF0
S1131ECC00D500DB0017B7D1386F12833A0AD72339
S1111EDC3CCDCCCC3D0000803F0000204100F6
S9030000FC
